:020000040800F2
:10000000C0100020D1010008D9010008DB01000860
:10001000DD010008DF010008E10100080000000028
:10002000000000000000000000000000E3010008E4
:10003000E501000800000000E70100084D1300087A
:10004000EB010008EB010008EB010008EB010008E0
:10005000EB010008EB010008D1090008EB010008E2
:10006000950A0008EB010008EB010008EB0100080D
:10007000EB010008EB010008EB010008EB010008B0
:10008000EB010008EB010008EB010008EB010008A0
:10009000EB010008EB010008EB010008EB01000890
:1000A000EB010008EB010008EB010008EB01000880
:1000B000BD130008EB010008EB010008EB0100088C
:1000C000EB010008EB010008EB010008EB01000860
:1000D000EB01000845190008EB010008EB010008DE
:1000E000EB010008EB010008EB01000800F002F84A
:1000F00000F05EF80AA090E8000C82448344AAF164
:100100000107DA4501D100F053F8AFF2090EBAE861
:100110000F0013F0010F18BFFB1A43F0010318473B
:10012000AC5E0000CC5E00000A444FF0000C10F8FA
:10013000013B13F0070408BF10F8014B1D1108BF65
:1001400010F8015B641E05D010F8016B641E01F805
:10015000016BF9D113F0080F1EBF10F8014BAD1C55
:100160000C1B09D16D1E58BF01F801CBFAD505E073
:1001700014F8016B01F8016B6D1EF9D59142D6D3CD
:10018000704700000023002400250026103A28BFF5
:1001900078C1FBD8520728BF30C148BF0B607047F9
:1001A0001FB59DE8030000F09BF91FBD10B510BD01
:1001B00000F000FA1146FFF7F3FF03F011FB00F027
:1001C00038FA03B4FFF7F2FF03BC00F075FA000041
:1001D0000948804709480047FEE7FEE7FEE7FEE7DB
:1001E000FEE7FEE7FEE7FEE7FEE7FEE70448054917
:1001F000054A064B704700005D130008ED0000083B
:10020000C00A0020C0100020C00C0020C00C00203C
:10021000032A40F2308010F0030C00F0158011F832
:10022000013BBCF1020F624498BF11F801CB00F80A
:10023000013B38BF11F8013BA2F1040298BF00F85E
:1002400001CB38BF00F8013B11F0030300F025801B
:10025000083AC0F0088051F8043B083A51F804CB42
:10026000A0E80810F5E7121D5CBF51F8043B40F808
:10027000043BAFF30080D20724BF11F8013B11F813
:1002800001CB48BF11F8012B24BF00F8013B00F857
:1002900001CB48BF00F8012B704710B5203AC0F0E1
:1002A0000B80B1E81850203AA0E81850B1E8185077
:1002B000A0E81850BFF4F5AF5FEA027C24BFB1E8B4
:1002C0001850A0E8185044BF18C918C0BDE8104025
:1002D0005FEA827C24BF51F8043B40F8043B08BF2E
:1002E0007047D20728BF31F8023B48BF11F8012BF5
:1002F00028BF20F8023B48BF00F8012B70474FF0A1
:1003000000020429C0F0128010F0030C00F01B80E2
:10031000CCF1040CBCF1020F18BF00F8012BA8BFF0
:1003200020F8022BA1EB0C0100F00DB85FEAC17CB4
:1003300024BF00F8012B00F8012B48BF00F8012B67
:1003400070474FF0000200B5134694469646203998
:1003500022BFA0E80C50A0E80C50B1F12001BFF47E
:10036000F7AF090728BFA0E80C5048BF0CC05DF8E4
:1003700004EB890028BF40F8042B08BF704748BF32
:1003800020F8022B11F0804F18BF00F8012B7047A6
:100390004FF0013C50F8042B51F8043B9A4221D114
:1003A000A2EB0C03934313EACC1317D150F8042BA0
:1003B00051F8043B9A4215D1A2EB0C03934313EA84
:1003C000CC130BD150F8042B51F8043B9A4209D1BD
:1003D000A2EB0C03934313EACC13DBD04FF00000E5
:1003E000704700BFD01A01BAB1FA81F101F01801CB
:1003F00022FA01F0CB40C1F12001DBB2C0B2C01A39
:100400002CFA01F3D11A914311EAC311E6D17047D6
:10041000704770477047000000487047940A0020FA
:1004200070B5064600F03CF8056806F10B0020F0B8
:100430000704B4429CBF002070BD2B466A68BAB165
:100440001068A04210D304F1080188423CBF5068F4
:10045000586007D35168101941601168091B016089
:1004600058601460101D70BD13465268002AE7D111
:100470002146284600F020F80028DED170BD10B5D6
:1004800000F012F8006810BD10B5044600F00CF83A
:10049000046010BD00F081B800487047600A002079
:1004A00000487047680A002000487047600A002032
:1004B000704770477047704738B504460A460020B9
:1004C0006946AFF30080002808BF38BD0246009996
:1004D000204600F094F8012038BD012000F0BDB89E
:1004E000F8B5AFF30080054600200C46102000BF91
:1004F0000646A819A0420DD9324669460020AFF33E
:100500000080070008BF00F0A8F80098A04218BFBC
:100510000546C419FFF7C4FF05600746F01D20F02B
:1005200007004619284600F00AF8B44208BFF8BD93
:10053000A21B31463868BDE8F84000F060B80021E1
:100540000160C0E9011070471020704770B5044683
:10055000051FFFF7A5FF0068002C14BF446870BD9D
:10056000002C18BFAC423CBF20466468F8D3016839
:100570000A18AA4218BF456003D12A6805461144EB
:10058000016028684119A1421CBF6C6070BD6168A0
:10059000696021680844286070BD10B500F067F8F4
:1005A000016919B100220261884701E08068804733
:1005B00000F048F87546FFF76FFFAE460500694644
:1005C000534620F00700854618B020B5FFF70EFE11
:1005D000BDE820404FF000064FF000074FF0000844
:1005E0004FF0000B21F00701AC46ACE8C009ACE8C5
:1005F000C009ACE8C009ACE8C0098D4670470346A5
:1006000040688C46002818BF88423CBF03464068BB
:10061000F8D318681844884207D00CF1030020F082
:100620000700001D411A521A0146081D0A60FFF713
:100630008DBF10B50446AFF300802046BDE81040E2
:10064000FFF7BFBD10B5002000F047F8FFF7AEFD83
:10065000BDE81040012000F02FB810B500F044F8BC
:10066000BDE8104000F034B810B5FFF7EBFF70B5EF
:1006700000F02AF804680546A4B92020FFF7D0FE50
:10068000040011D0094900202C60C4E90001084988
:10069000A1602073206160610649A06109B100F08A
:1006A0004BF8E061204670BDFFF7CCFF0000000072
:1006B000690600080000000001491820ABBEFEE7F3
:1006C0002600020070470000004870479C0A002086
:1006D000002801D0FFF7F0BF704710B500F064F8B4
:1006E000BDE81040FFF7F4BF10B5012805D0002188
:1006F00003A000F03FF8012010BD09A1F8E70000B9
:1007000053494752544D454D3A204F7574206F66FA
:100710002068656170206D656D6F72790000000062
:100720003A2048656170206D656D6F727920636F46
:10073000727275707465640010B58820FFF770FEE2
:10074000002801D00021017010BD802902D808B115
:10075000017809B100207047012100F8081B70479B
:1007600018B100F10802914201D000207047002129
:100770000170704770B505460C460A2000E06D1CFC
:1007800000F02AF835B128780028F8D102E0641C7E
:1007900000F022F814B120780028F8D1BDE87040AC
:1007A0000A2000F019B8000010B5002102A0FFF7E0
:1007B000E1FF012010BD0000534947414252543A25
:1007C0002041626E6F726D616C207465726D696E2E
:1007D0006174696F6E00000008B569468DF800000D
:1007E0000320ABBE08BD000000F0805111B10349E9
:1007F000086001E0024948607047000004040240BC
:100800000000024021B1026842F00102026004E0EF
:1008100002684FF6FE731A400260704701684FF697
:10082000FE72114001600021016041608160C16081
:100830004B49884208D14A490839496841F00F01BB
:10084000474A083A51608AE045491431884208D144
:1008500043490839496841F0F001414A083A51607A
:100860007DE03F492831884208D13D49083949682F
:1008700041F470613A4A083A516070E038493C31BD
:10088000884208D136490839496841F47041344AF0
:10089000083A516063E032495031884208D130490A
:1008A0000839496841F470212D4A083A516056E0F0
:1008B0002B496431884208D129490839496841F4F3
:1008C0007001274A083A516049E025497831884249
:1008D00008D123490839496841F07061204A083A33
:1008E00051603CE01F49884206D1011F096841F070
:1008F0000F01021F116032E01A491431884208D1F9
:100900001849091F096841F0F001164A121F1160C9
:1009100025E014492831884208D11249091F096885
:1009200041F470610F4A121F116018E00D493C310B
:10093000884208D10B49091F096841F47041094AEE
:10094000121F11600BE007495031884207D1054959
:10095000091F096841F47021024A121F1160704793
:10096000080002400804024001460020002201F075
:10097000805313B1054B1A6801E0054B1A6802EA6F
:1009800001030BB1012000E0002070470004024089
:100990000000024010B50022026847F6F0739A4347
:1009A0000C6A8B6823430C6923434C6923438C698D
:1009B0002343CC6923434C6A23438C6A23431A4361
:1009C0000260CB6843600B6883604B68C36010BDF6
:1009D00070B503F04DFC0446012000F0C1F8012879
:1009E00042D100F0B7F84FF40051204800F061FA0E
:1009F000012813D11E490968601A04F0FBFE06465F
:100A000031461C4804F0ACFD05461B4904F03AFF92
:100A10001A49086001201A49086012E0144909685F
:100A2000601A04F0E7FE06463146164804F098FDC9
:100A30000546114904F026FF1049086000201049BE
:100A400008600F48006810490968884202D00020F9
:100A50000A4908600D4800680D49086008480068A8
:100A6000094908600248046070BD000000100140A0
:100A7000E800002000247449CDCC4C3EDC0000206E
:100A8000CC000020002474C9D4000020D80000202D
:100A9000EC00002070B503F0EBFB0446042000F0EE
:100AA0005FF8012843D1042000F054F84FF480414E
:100AB0001F4800F0FEF9012813D11E490968601A89
:100AC00004F098FE064631461B4804F049FD0546F1
:100AD0001A4904F0D7FE1A49086001201949086034
:100AE00012E014490968601A04F084FE0646314693
:100AF000154804F035FD0546104904F0C3FE1049C1
:100B0000086000200F4908600E4800680F49096816
:100B1000884202D000200A490860094800680C4950
:100B2000086008480068094908600248046070BD10
:100B300000100140E0000020002474C9CDCC4C3EE0
:100B4000D8000020C800002000247449D0000020F4
:100B5000E4000020014908607047000014040140CF
:100B6000014600200022074B1B6803EA0102054BE7
:100B700014331B680B4013B10AB1012000E00020C0
:100B80007047000000040140002123498279002AB7
:100B90003AD00A46126803689A430B461A600A1D47
:100BA000126803689A430B1D1A60027911440A689F
:100BB00003681A430A60184A0832126803689A43A5
:100BC000154B08331A601A1D126803689A43124BBA
:100BD0000C331A604279102A0ED11A1F126803686A
:100BE0001A430D4B08331A601A1D126803681A4322
:100BF000094B0C331A600DE00749427911440A6829
:100C000003681A430A6005E0027911440A68036820
:100C10009A430A60704700000004014030B5044662
:100C200004254FF4302000F085F80546042D17D137
:100C30000C48006940F002000A4908610846446116
:100C4000006940F0400008614FF4302000F072F875
:100C500005460448006941F6FD71084001490861F4
:100C6000284630BD0020024004200B49C96801F02D
:100C7000010109B101200EE00749C96801F0040132
:100C800009B1022007E00449C96801F0100109B167
:100C9000032000E004207047002002400348006960
:100CA00040F08000014908617047000000200240C8
:100CB00078B506460C46042500200090E80200F0B6
:100CC00039F80546042D24D11348006940F001008D
:100CD000114908613480E80200F02CF80546042D23
:100CE00010D1B01C0090200C00990880E80200F0A0
:100CF00021F805460848006941F6FE71084006499A
:100D0000086106E00448006941F6FE7108400249A6
:100D10000861284678BD00000020024002480349CF
:100D2000486003484860704723016745002002403F
:100D3000AB89EFCD00B502460423FFF795FF0346CC
:100D400003E0FFF791FF0346521E012B01D1002A59
:100D5000F7D102B90523184600BD000030B50022C6
:100D60008B071C0F0F2303FA04F20B4B8C1053F864
:100D700024309343084C8D1044F8253023468C10C2
:100D800053F824308C07240F00FA04F42343024C58
:100D90008D1044F8253030BD080001402DE9F041A8
:100DA000024600250026002000230024002791F899
:100DB00003C00CF00F0591F803C00CF0100CBCF14F
:100DC000000F03D091F802C04CEA050591F800C06D
:100DD000BCF1000F31D0146800202BE04FF0010C63
:100DE0000CFA00F3B1F800C00CEA03069E4220D1D1
:100DF00083004FF00F0C0CFA03F7BC4305FA03FC19
:100E00004CEA040491F803C0BCF1280F06D14FF05E
:100E1000010C0CFA00FCC2F814C00AE091F803C0FF
:100E2000BCF1480F05D14FF0010C0CFA00FCC2F8E0
:100E300010C0401C0828D1D31460B1F800C0BCF128
:100E4000FF0F34DD546800202EE000F1080C4FF055
:100E5000010808FA0CF3B1F800C00CEA03069E4240
:100E600021D183004FF00F0C0CFA03F7BC4305FAB5
:100E700003FC4CEA040491F803C0BCF1280F05D12F
:100E800000F1080C08FA0CF8C2F8148091F803C0BD
:100E9000BCF1480F07D100F1080C4FF0010808FA27
:100EA0000CF8C2F81080401C0828CED35460BDE86E
:100EB000F0810246002093680B400BB1012000E056
:100EC0000020704701617047F8B506460F4614468A
:100ED0001D466B4601223946304602F037FB2DB1E4
:100EE0000120A0409DF80010084305E00120A0402B
:100EF0009DF8001021EA0000C0B200909DF800208B
:100F00003946304602F038FC08B9012000E00020E4
:100F100001490870F8BD0000C00000202DE9F84329
:100F20000746884614461D46089E6B4601224146E8
:100F3000384602F00BFB601CFF2101FA00F0C4F1FF
:100F400008012944491EFF220A41104300F0FF090D
:100F5000C5F1080006FA00F0C6B2C4F10700064168
:100F60009DF8000000EA090000909DF80000304361
:100F700000909DF800204146384602F0FDFBBDE898
:100F8000F88338B50446032302226B2168200094BD
:100F9000FFF7C4FF38BD38B50446032302221A21E7
:100FA00068200094FFF7BAFF38BD38B50446022325
:100FB00004221C2168200094FFF7B0FF00200323C7
:100FC00007221C2100906820FFF7A8FF38BD38B524
:100FD0000446022304221B2168200094FFF79EFF91
:100FE0000020032307221B2100906820FFF796FFB3
:100FF00038BD10B504462346012237216820FFF78B
:1010000063FF10BD10B50446234605226A216820FF
:10101000FFF75AFF10BD10B50446234606226B2188
:101020006820FFF751FF10BD70B504464FF47A7089
:1010300090FBF4F0401EC5B22A461921682002F048
:101040009BFB70BD70B5002100230F22C47804B350
:10105000154C246804F4E064C4F5E064210AC1F18D
:101060000403CA40447804FA03F18478144021430D
:1010700009010E4C0678A155047804F01F050124DF
:10108000AC4005786D11AD0005F1E025C5F80041D3
:1010900009E0047804F01F050124AC40044D0678F3
:1010A000761145F8264070BD0CED00E000E400E04C
:1010B00080E100E002490143024A116070470000EC
:1010C0000000FA050CED00E010B5002807DA0A0769
:1010D000140E054A00F00F031B1FD45403E00A0747
:1010E000130E024A135410BD18ED00E000E400E0B6
:1010F00029B1064A52690243044B5A6104E0034A8B
:1011000052698243014B5A6170470000001002404F
:1011100029B1064AD2690243044BDA6104E0034A6A
:10112000D2698243014BDA6170470000001002402F
:1011300029B1064A12690243044B1A6104E0034ACA
:1011400012698243014B1A6170470000001002408F
:1011500029B1064A92690243044B9A6104E0034AAA
:1011600092698243014B9A6170470000001002406F
:1011700029B1064AD2680243044BDA6004E0034A0C
:10118000D2688243014BDA607047000000100240D1
:1011900030B500210022002400232D4D6D6805F09C
:1011A0000C0121B1042905D0082923D105E0294DDE
:1011B000056022E0274D05601FE0254D6D6805F4B0
:1011C0007012234D6D6805F48034022505EB9242C0
:1011D0001CB9214D554305600BE01D4D6D6805F4AC
:1011E00000351DB11C4D5543056002E0194D5543B6
:1011F000056002E0174D056000BF00BF144D6D682B
:1012000005F0F0010909154D6B5C0568DD4045608E
:101210000F4D6D6805F4E061090A104D6B5C45687F
:10122000DD4085600A4D6D6805F46051C90A0B4DBB
:101230006B5C4568DD40C560054D6D6805F4404157
:10124000890B074D6B5CC568B5FBF3F5056130BDD7
:101250000010024000127A0000093D003002002018
:101260004002002010B500F001F810BD0CB50020C0
:10127000019000903348006840F4803031490860A4
:1012800000BF3048006800F4003000900198401C16
:101290000190009818B90198B0F5A06FF1D12948D4
:1012A000006800F4003010B10120009001E000203F
:1012B00000900098012843D12348006840F01000B6
:1012C000214908600846006820F0030008600846CD
:1012D000006840F0020008601A48406819494860F8
:1012E0000846406848600846406840F480604860AE
:1012F0000846406820F47C1048600846406840F486
:10130000E81048600846006840F08070086000BF40
:101310000C48006800F000700028F9D009484068C7
:1013200020F00300074948600846406840F002008A
:10133000486000BF0348406800F00C000828F9D15D
:101340000CBD00000010024000200240024800686E
:10135000401C0149086070474000002010B5134848
:10136000006840F0010011490860084640681049D3
:1013700008400E494860084600680E4908400B497D
:1013800008600846006820F480200860084640682D
:1013900020F4FE0048604FF41F008860FFF762FFF2
:1013A0004FF000600449086010BD000000100240CA
:1013B0000000FFF8FFFFF6FE08ED00E070B5012128
:1013C000880700F027F9C0B10121880700F01FF855
:1013D00002F04EFF044609480068401C07490860B7
:1013E00002F092FF06490968601A04F003FA054604
:1013F000034804600348056000BF70BD4C00002036
:101400005000002078020020CA4302827047CA437D
:101410000282704721B1028842F00102028004E09A
:1014200002884FF6FE731A400280704710B50446DA
:101430006848844208D10121C014FFF799FE0021B9
:10144000E014FFF795FEC4E0B4F1804F08D101210C
:101450000846FFF76DFE00210120FFF769FEB8E0A6
:101460005D48844208D101210220FFF761FE00217E
:101470000220FFF75DFEACE05848844208D101210C
:101480000420FFF755FE00210420FFF751FEA0E0E5
:101490005348844208D101210820FFF749FE00216A
:1014A0000820FFF745FE94E04E48844208D1012110
:1014B0001020FFF73DFE00211020FFF739FE88E0E5
:1014C0004948844208D101212020FFF731FE002144
:1014D0002020FFF72DFE7CE04448844208D1012102
:1014E0004014FFF745FE00216014FFF741FE70E055
:1014F0003F48844209D10121C804FFF739FE002189
:101500004FF40020FFF734FE63E03A48844209D1EB
:1015100001210805FFF72CFE00214FF48010FFF792
:1015200027FE56E03448844209D101214805FFF7DF
:101530001FFE00214FF40010FFF71AFE49E02F486C
:10154000844208D101214020FFF7F2FD0021402014
:10155000FFF7EEFD3DE02A48844208D101218020BA
:10156000FFF7E6FD00218020FFF7E2FD31E025488E
:10157000844208D101218015FFF7DAFD0021A01572
:10158000FFF7D6FD25E02048844209D10121080457
:10159000FFF7EEFD00214FF48030FFF7E9FD18E082
:1015A0001A48844209D101214804FFF7E1FD0021D6
:1015B0004FF40030FFF7DCFD0BE01548844208D102
:1015C00001218804FFF7D4FD00214FF48020FFF7AC
:1015D000CFFD10BD002C0140000400400008004079
:1015E000000C004000100040001400400034014096
:1015F000004C0140005001400054014000180040E0
:10160000001C004000200040004001400044014018
:101610000048014030B50246002000230024158A0E
:1016200005EA0103958905EA010413B10CB1012013
:1016300000E0002030BD1AB183890B43838102E0B2
:1016400083898B438381704770B500240022002377
:10165000058C4FF6FE7635400584028C8388048B1A
:101660004FF68F752C40B51E2C400D882C43751EEF
:101670002A400D892A434D882A43144DA8420BD095
:10168000134DA84208D0134DA84205D0124DA842D0
:1016900002D0124DA84213D14FF6F7752A404D895A
:1016A0002A434FF6FB752A408D882A434FF6FF6583
:1016B0002B404FF6FF552B408D892B43CD892B4373
:1016C00083800483CD888586028470BD002C014010
:1016D0000034014000400140004401400048014006
:1016E00070B5002400220023058C4FF6EF763540BC
:1016F0000584028C8388048B48F6FF752C404FF6D6
:10170000FF452C400D884FF6FF7606EA05252C4351
:101710004FF6DF752A400D8906EA05152A434D88E4
:1017200006EA05152A43154DA84202D0144DA842D9
:101730001DD14FF67F752A404D894FF6FF7606EA98
:1017400005152A434FF6BF752A408D8806EA051510
:101750002A434FF6FF352B404FF2FF752B408D8902
:1017600006EA85052B43CD8906EA85052B43838050
:101770000483CD880587028470BD0000002C0140E1
:101780000034014070B5002400220023058C4FF680
:10179000FF6635400584028C8388848B4FF68F75F5
:1017A0002C404FF6FC752C400D882C434FF6FF550E
:1017B0002A400D894FF6FF7606EA05252A434D8813
:1017C00006EA05252A43154DA84202D0144DA84229
:1017D0001DD14FF2FF752A404D894FF6FF7606EA7C
:1017E00005252A434FF6FF352A408D8806EA052550
:1017F0002A434EF6FF752B404DF6FF752B408D8921
:1018000006EA05152B43CD8906EA05152B4383808F
:101810008483CD888587028470BD0000002C014040
:101820000034014070B5002200230024058C4EF6E0
:10183000FF7635400584038C8488828B48F6FF75DB
:101840002A404FF6FF452A400D884FF6FF7606EAFC
:1018500005252A434DF6FF752B400D8906EA05350F
:101860002B434D8806EA05352B430B4DA84202D089
:101870000A4DA84208D14BF6FF752C408D894FF6D2
:10188000FF7606EA85152C4384808283CD88A0F8F4
:101890004050038470BD0000002C01400034014022
:1018A000002202881D4B98420ED01D4B98420BD04F
:1018B000B0F1804F08D01B4B984205D01A4B98428C
:1018C00002D01A4B984204D14FF68F731A404B88BE
:1018D0001A43174B984207D0164B984204D04FF644
:1018E000FF431A40CB881A4302808B8883850B887C
:1018F00003850A4B98420BD0094B984208D00E4BF7
:10190000984205D00D4B984202D00D4B984201D120
:101910000B7A03860123838270470000002C01406C
:10192000003401400004004000080040000C00406A
:1019300000100040001400400040014000440140FD
:101940000048014010B540F22551104800F046F81B
:1019500048B102F0EDFB28B1002240F225510B48BE
:1019600000F066F810BD40F22771084800F036F824
:1019700048B102F055FD28B1002240F2277103481A
:1019800000F056F8EEE700BFECE700000038014039
:1019900010B502460020108A4FF2FF0318400B8852
:1019A0004C8823438C882343CC88234318431082DC
:1019B00010BD21B1828942F40052828104E0828903
:1019C0004DF6FF731A40828170471AB1838A0B4328
:1019D000838202E0838A8B438382704770B502461C
:1019E000002400230025002040F66A16B14200D1F1
:1019F00000BFC1F3421501F01F03012606FA03F3ED
:101A0000012D02D19689334006E0022D02D1168ABB
:101A1000334001E0968A33400C12012606FA04F4A2
:101A20001688344013B10CB1012000E0002070BDD5
:101A3000F0B50346002400260025002040F66A1772
:101A4000B94200D100BF1846C1F3421401F01F068D
:101A5000012707FA06F5012C01D10C3004E0022C15
:101A600001D1103000E014301AB107682F4307602D
:101A700002E00768AF430760F0BD00002DE9F047C2
:101A800086B005460E460024A24600BFA1460027A8
:101A9000B08900B100BF2F462C8A4CF6FF7004407D
:101AA000F08804432C82AC894EF6F3100440B088D1
:101AB00031890843718908430443AC81AC8A4FF6ED
:101AC000FF400440B0890443AC8201A8FFF760FBEB
:101AD0001F48874202D1DDF810A001E0DDF80CA01C
:101AE000A88900F4004040B10AEBCA0000EB0A10DC
:101AF00031684900B0FBF1F807E00AEBCA0000EBDF
:101B00000A1031688900B0FBF1F86420B8FBF0F0EE
:101B100004012009642101FB1089A88900F4004018
:101B200040B1322000EBC900B0FBF1F000F007003B
:101B3000044308E0322000EB09106421B0FBF1F00F
:101B400000F00F0004432C8106B0BDE8F0870000D0
:101B50000038014001468888C0F308007047C1F38F
:101B6000080282807047000070B504460D46022CC2
:101B700001DA012070BD12A16868FEF709FCE8B91E
:101B80001148006810B14FF0FF30F3E71C2000F05F
:101B9000BBFF064600F09EFF06460B480660006845
:101BA00010B94FF0FF30E5E70748006800F0F0FE9D
:101BB00010B14FF0FF30DDE70020DBE70020D9E770
:101BC0007374617274000000B800002010B5002426
:101BD0000122202141A000F013FA044401221C211B
:101BE00040A000F00DFA044401221C213FA000F0A7
:101BF00007FA044401221C213EA000F001FA04442B
:101C0000012210213CA000F0FBF90444012218211C
:101C10003BA000F0F5F90444012218213CA000F09B
:101C2000EFF9044401222C213BA000F0E9F904441F
:101C3000012260213AA000F0E3F90444012260216E
:101C400038A000F0DDF904440122702138A000F032
:101C5000D7F90444012260213AA000F0D1F90444EC
:101C600001222C213BA000F0CBF9044401221421D5
:101C70003EA000F0C5F90444012210213FA000F06D
:101C8000BFF9044401220C2142A000F0B9F9044438
:101C90000122602141A000F0B3F904440122102187
:101CA00042A000F0ADF904440122082143A000F055
:101CB000A7F904440122142144A000F0A1F904442E
:101CC0000122482144A000F09BF90444012248214C
:101CD00045A000F095F90444204610BD6D616E7575
:101CE000616C0000616363656C0000006779726F6E
:101CF000000000006D6167006261726F000000000B
:101D00006D61675F63616C6962726174696F6E00B7
:101D1000736F6E6172000000666C6F7700000000E8
:101D20006770730061747469747564650000000005
:101D300061747469747564655F736574706F696EDE
:101D4000740000006C6F63616C5F706F736974691D
:101D50006F6E00006C6F63616C5F706F73697469A4
:101D60006F6E5F736574706F696E74007261746515
:101D7000735F736574706F696E7400006174746969
:101D8000747564655F636F6E74726F6C5F7374619A
:101D9000747573007374617475730000636F6E748F
:101DA000726F6C5F7374617465000000636F6E74B2
:101DB000726F6C5F6D6F6465000000006D6F746F13
:101DC000725F6C696D697473000000006163747503
:101DD00061746F72000000006163747561746F72EA
:101DE0005F6F75747075740076656869636C655FA4
:101DF000636F6D6D616E640002460B7883EA0200CA
:101E000080EA0013D8B20B881B1283EA002383EA0E
:101E1000C00383EA20130B80704770B506460C465A
:101E2000154624B929463046FEF769FA04E02A46E9
:101E300021463046FEF7ECF970BD70B504460D46FC
:101E4000164632462946204600F01AF970BD0000B9
:101E50002DE9F04781460E4690461F46484600F061
:101E600021F90546484600F027F904464FF0000ADC
:101E700000202070E0780A2811D2DFE800F0050683
:101E800011302838404D5E7F00BFFE2E07D1022062
:101E9000E0700020E870AE70284600F0EBF891E0AA
:101EA000207850B16078401C6070A078401CA07011
:101EB000002020700120E07008E0EE70002020710A
:101EC0003146284600F0E6F80420E0707AE02E71F2
:101ED0003146284600F0DEF80320E07072E06E71B3
:101EE0003146284600F0D6F80520E0706AE0AE7171
:101EF0003146284600F0CEF80620E07062E0EE7130
:101F00003146284600F0C6F8E87810B90820E0709D
:101F100001E00720E07055E02179481C207105F1AF
:101F2000080046543146284600F0B4F82079E97894
:101F3000884201D10820E07044E0E8792F4A115C22
:101F4000284600F0A7F82878B04210D0A078401CAE
:101F5000A070002020700120E070FE2E0DD1022024
:101F6000E0700020E870284600F084F805E00920C1
:101F7000E070217905F10800465423E02888B6EB8B
:101F8000202F10D0A078401CA070002020700120CD
:101F9000E070FE2E15D10220E0700020E870284687
:101FA00000F068F80DE001202070E0702079401CFE
:101FB00005F108010E544FF4887229464046FEF799
:101FC00027F900BF00BF0AF1010A2078012808D1D3
:101FD00028796071208908B9002060812089401C1F
:101FE00020816079401C787120893881A0787881BF
:101FF0000020A0702078BDE8F08700006E5D00082A
:102000002DE9F04107460E4615461DB94FF0FF3049
:10201000BDE8F081142000F077FD04464FF0000881
:1020200006FB05F000F06CFD8046F4B1B8F1000F3E
:102030001BD02760C4F804802681A5720020E072BE
:10204000681E2073002020610948006810B9084804
:10205000046008E00649086800E000690169002999
:10206000FBD1046100BF0020D2E74FF0FF30CFE783
:102070002C02002000BF4FF6FF71018000BF7047A7
:1020800070B506460C4615462A462146032002F046
:1020900005FD70BD70B504460D4621462846FFF784
:1020A000ABFE70BD014601EB0110024A02EB0010CD
:1020B00070470000BE050020014601EB4100024AC6
:1020C00002EB8000704700008E0500202DE9FF4FD5
:1020D00089B00C4615461E4616AF97E8800F01944E
:1020E00002950396ADF81070ADF81280ADF814901B
:1020F000ADF816B01B98ADF818001C98ADF81A0092
:102100001D98ADF81C001E98ADF81E001F98ADF884
:1021100020008DF822A07C201F2301AA012100901D
:10212000099800F035F80DB0BDE8F08F7CB5064693
:102130000C461546ADF804408DF806508F20032359
:1021400001AA4D210090304600F022F87CBD2DE917
:10215000F04389B006460F4614461D46DDE9108956
:102160000294ADF80C80ADF80E908DF8205010223E
:10217000394604A8FFF751FEDC20192302AA1621D4
:102180000090304600F004F809B0BDE8F08300008C
:102190002DE9FF4F85B0884615461C460598FFF788
:1021A0008BFF0646FE208DF808008DF80940B079B7
:1021B0008DF80A002B4800788DF80B0029484078EC
:1021C0008DF80C008DF80D80B079401CB0710DF1C8
:1021D00009074FF0050900BF4FF6FF70009000BFE0
:1021E00004E017F8010B6946FFF706FEB9F100009D
:1021F000A9F101011FFA81F9F3D1BDF800000490A3
:1022000004AFA946A246CB4604E01BF8010B3946B1
:10221000FFF7F2FDBAF10000AAF101011FFA81FAFD
:10222000F3D100BF04A91298FFF7E6FDBDF8100036
:10223000C0B28DF80400BDF8100000128DF8050042
:10224000062202A90598FFF7F8FD224629460598BF
:10225000FFF7F3FD022201A90598FFF7EEFD09B093
:10226000BDE8F08F84050020F0B587B007460C4626
:1022700015461E46029403960A22294604A8FFF733
:10228000CCFDAA20122302AAFB2100903846FFF7BA
:102290007FFF07B0F0BD00002DE9F04105460E4676
:1022A0002248046837E029462068FEF771F880BBB1
:1022B000A07A012805DC228930466168FDF7A8FF75
:1022C00026E0E07A217B401A401EA17A084490FB68
:1022D000F1F201FB1200C7B2D4F80480002F0EDD2A
:1022E000228902FB07813046FDF792FF207B401CCC
:1022F000A17A90FBF1F201FB1200207307E0208924
:10230000237B00FB038102463046FDF781FF00BFBF
:1023100003E0FFE72469002CC5D100BF14B1002001
:10232000BDE8F0814FF0FF30FAE700002C020020FA
:1023300030B599B005463148006805285AD2DFE823
:1023400000F00343494F5500602101A8FDF7F9FF54
:1023500001A92BA0FFF7A0FF02F05EF804462B486E
:102360002BA22146C3690120FFF77EFF02F054F83B
:102370000446264829A22146836A0120FFF774FFFC
:1023800002F04AF80446214827A22146C3680120EA
:10239000FFF76AFF02F040F804461C4825A22146D8
:1023A00003690120FFF760FF02F036F80446174882
:1023B00023A2214643690120FFF756FF0F4800681A
:1023C000401C0E49086015E00C480068401C0B4991
:1023D00008600FE009480068401C0849086009E0EF
:1023E00006480068401C0549086003E000200349D6
:1023F000086000BF00BF19B030BD0000BC00002065
:102400006174746974756465000000004402002002
:10241000414E474C455F45554C455200414E474C57
:10242000455F414343000000414E474C455F4759DB
:102430005F580000414E474C455F47595F590000C7
:10244000414E474C455F47595F5A000010B5C8B030
:10245000044600200190029003900CE001AB04AA16
:102460009DF800100020FFF7F3FC20B104AA002122
:10247000204600F009F801226946032001F0ECFD36
:102480000028EBD048B010BD2DE9F04F8DB080464C
:102490000F461446E079152875D004DC042873D063
:1024A000142872D104E0172870D04C28F9D158E1D3
:1024B00007AD142204F108012846FDF7A9FE00BF6C
:1024C0009DF81E00C349097888427CD19DF81F0001
:1024D000C04949788842F8D10DF120099DF82000C3
:1024E000FF2843D0BDF91C0000283EDB01F020FC92
:1024F000BDF91C10884238D9BDF91C0001F034FC2C
:102500008246BDF91C0001F05DFC0546BDB9BDF970
:102510001C0006A901F012FC01F00AFC86B2069824
:1025200003F050F98346BDF81C0080B206235A46DA
:102530005146CDE900603846FFF709FE15E0012D50
:1025400013D1BDF91C0006A901F0F8FB01F0F0FB66
:1025500086B2BDF81C0080B20923CDE90060514667
:102560003846069AFFF7F3FD00BF52E000254CE025
:10257000284601F0F9FB069049460698FDF708FF4A
:1025800028B9012004E046E0BEE01EE147E000205B
:102590008246BAF1000F37D0284601F013FC0646F8
:1025A000D6B9BDF91C0005A901F0C8FB01F0C0FBBC
:1025B0001FFA80FB059803F005F90490BDF81C0094
:1025C00080B2062300E025E0CDE900B03846049A49
:1025D0000699FFF7BCFD16E0012E14D1BDF91C00D1
:1025E00005A901F0ABFB01F0A3FB1FFA80FBBDF8CE
:1025F0001C0080B20923CDE900B03846DDE9052191
:10260000FFF7A5FD00BF00BF6D1C01F091FBA842C4
:10261000AED800BFDAE00020C8F80800D6E006AD6A
:10262000172204F108012846FDF737FE00BF9DF888
:102630001C0068490978884265D19DF81D006549EC
:10264000497888425FD10DF11E0A002556E02846E0
:1026500001F08AFB059051460598FDF799FE08B9EF
:10266000012000E000208346BBF1000F45D004A903
:10267000284601F063FBDDF81890049E4946304679
:1026800003F030F801D1012000E0002040BB0698A3
:1026900020F00041C1F1FF41C90F09BB06984FF07E
:1026A0007F41B1EB400F01D1012100E00021B9B918
:1026B0000698049004A9284601F068FB0022114600
:1026C000092002F0EBF901F033FB86B2A8B209232E
:1026D000CDE900600120DDE90421FFF738FD0BE0C2
:1026E00001F026FB86B2A8B20923CDE900600120E3
:1026F000DDE90421FFF72BFD00BF6D1C01F018FB85
:10270000A842A4D800BF61E008AD0E2204F1080180
:102710002846FDF7C2FD00BF9DF82C0000BB9DF8C8
:102720002D00E8B901F078FE0790002694F8059096
:1027300094F806A0079800F0FF0B0A9DCDE9025619
:10274000CDF810908DF814A08DF815B0ED200E2363
:1027500002AA042100903846FFF71AFD00BF00BF0F
:1027600034E003AD212204F108012846FDF795FD70
:1027700000BFBDF82800F6281ED1039802F0E6FF3E
:10278000012806D1BDF8281000223846FFF7CEFCFC
:1027900011E0039802F0DAFF032806D1BDF82810F3
:1027A00000223846FFF7C2FC05E0BDF828100422DD
:1027B0003846FFF7BBFC06E0BDF828100322384678
:1027C000FFF7B4FC00BF00BF00E000BF00BF0DB0CA
:1027D000BDE8F08F840500202DE9F04786B005465E
:1027E00000260024002700200590287C08B144F032
:1027F000800444F00104687C30B101280AD002282A
:102800000ED0032818D111E044F0400401208DF8C7
:10281000160011E044F0500407208DF816000BE07C
:1028200044F0500402208DF8160005E044F05804EE
:1028300003208DF8160000BF00BF059F287C08B15B
:10284000042600E003264FF0010A0E4890F80280AB
:102850004FF00C0902978DF80C808DF80D908DF8D3
:102860000E408DF80F6003208DF8100032200923F0
:1028700002AA002100905046FFF78AFC00BF06B074
:10288000BDE8F08784050020FEB50446D4E90110B8
:10289000884221D2A06801F067FA0746A06801F0DB
:1028A00091FA064602A9A06801F048FA0EB9062579
:1028B00002E0012E00D10925208980B2A18889B2C9
:1028C0002B46CDE9001039460120029AFFF73FFC64
:1028D000A068401CA06000BFFEBD00002DE9F04FC5
:1028E0008BB00446002500260027A8461949A06998
:1028F00002F0C8FF834602F045FF1FFA80F9681E08
:102900000A901549A06903F04DF91449089002F0A6
:10291000B9FF8346124902F023FE099002F016FF28
:102920004FFA80FA00200690079008900146024670
:1029300009900A983B46CDE903A2CDE900890591AB
:102940000290324629460120FFF7C0FB0BB0BDE8DC
:10295000F08F000000007A449A99D9400000C842E4
:10296000C8CCCC3F10B504460248006800F01CF803
:1029700010BD0000B80000200121044A1170517000
:102980000221917001210170704700008405002030
:1029900010B5044666222146024801F0EDFB0020F6
:1029A00010BD0000652900082DE9F047824601F0BE
:1029B00033FDCAF80C009AF8000020B95046FFF722
:1029C000DBFFBDE8F0870AF110013CA0FFF764FCD3
:1029D0003C49086802F0B6FA804600223A4B02F001
:1029E000A5F804460D46DAF80C0002F0ABFA0646EC
:1029F00022462B4602F0F4FB06D23249DAF80C00EC
:102A000008605046FFF740FF2E49486802F09AFAE6
:102A1000804600222D4B02F089F804460D46DAF874
:102A20000C0002F08FFA064622462B4602F0D8FB35
:102A300006D22449DAF80C0048605046FFF706FD3C
:102A40002049886802F07EFA06460022204B02F0F8
:102A50006DF804460D46DAF80C0002F073FA804671
:102A600022462B4602F0BCFB09D21649DAF80C00CC
:102A700088605046FFF7B0FE5046FFF72FFF114920
:102A8000C86802F05FFA064600220F4B02F04EF8CB
:102A900004460D46DAF80C0002F054FA804622464D
:102AA0002B4602F09DFB06D20649DAF80C00C860FE
:102AB0005046FFF73DFC00BF83E70000737461746C
:102AC00075730000000A00200088D340006AF840B7
:102AD00080842E4110B5044600202070E06001F093
:102AE00027F960606068A06009210448FDF729FCAF
:102AF000002020616061A061204610BD8405002097
:102B000010B500F001F810BD10B5040007D1012484
:102B100005E0FDF781FC006800B9044880472046C5
:102B2000FDF77EFC0028F4D010BD000095040008DD
:102B30004100080218BF04200A0E18BF40F001002F
:102B40004FF07F4232EA010108BF40F00200012845
:102B500008BF05207047012103F0CBB800210846CB
:102B600002F0FEBC6FF05E01080703F0C2B800007F
:102B70002DE9F04104464FF00E4000EB4400B0F167
:102B8000506F204655D84FF0FC41B1EB440F1CD29A
:102B900024F000404FF07E5102F071FF4FF0FF3102
:102BA00003F0A7F8054601F04DFB14F0004F1DBFE0
:102BB0002F4F304E80F000402F4F08BF2F4E4FF068
:102BC000404102F05FFE044605E000273E46014614
:102BD00002F058FE05462A49284602F053FE2949CC
:102BE00002F04AFC294602F04DFE274902F044FC5F
:102BF000294602F047FE254902F03EFC294602F034
:102C000041FE234902F038FC80462946204602F066
:102C100039FE414602F036FE05463146204602F0B6
:102C20002BFC294602F028FC3946BDE8F04102F0B1
:102C300023BC4FF0E441B1EB440F08D9FFF778FF14
:102C4000042808BFFFF78EFF2046BDE8F0814FF053
:102C50007F41B1EB440F03D2BDE8F041FFF77BBFEA
:102C60000120FDF711FCBDE8F041FFF777BF000040
:102C70000000C9BF22AAFDB90000C93F22AAFD3940
:102C800024FE1C3DC78AD83C1E67383D1B93993DE6
:102C9000AFAA2A3E2DE9F04F8BB00D4614464D4A9F
:102CA0006168906802F0EEFD06464B48D0F800904F
:102CB000606802F0B5FB21F0004107460022474B57
:102CC00002F08EFA2FD2606802F0AAFB21F00041D8
:102CD00007460022424B02F049F924D2606802F014
:102CE0009FFB21F0004100223C4BCDE9020102F0A4
:102CF000ADFA0022394BCDE9040101F0CBFF824649
:102D00000022384B01F012FFCDE90601304602F0F7
:102D100087FB0746DDE9062302F064F9CDE90801E7
:102D200001F0D2FE06462B494868494602F0AAFD4A
:102D30008046284A6968106802F0A4FD8246314640
:102D400002F09AFB0746414602F096FB26490860CE
:102D5000484602F065FB0746244A254B02F040FA3C
:102D600001D2DFF89090484602F05AFB07461F4A0E
:102D7000214B02F0FBF801D2DFF88090484602F0C8
:102D80004FFB8246194A1E4B01F084FFCDE900013A
:102D900001F09AFE0290FFF7EBFE039002F040FB79
:102DA0000022184BCDE9040102F01CF90022164B59
:102DB000CDE9060102F016F9144A154BCDE90801D8
:102DC00001F068FF074601F07FFE034948620BB03F
:102DD000BDE8F08FD804002044020020008041406C
:102DE000004055400000F03FA40400209A999999B2
:102DF00099992340CDCC1C41999923C0CDCC1CC1BD
:102E00009999334000000840008066406E861BF0B0
:102E1000F921094070B5044604B970BD01F028FAE3
:102E20000546034A02F10C01FFF734FF00BFF4E747
:102E30005002002070B504462CB9002005490860F6
:102E40008861C86170BD01F013FA054600F0E4F92D
:102E500000BFF7E7B80400202DE9F04F8BB01C4607
:102E6000444A116B106902F00DFD09904148006859
:102E70000890414800686060089802F0D1FA054661
:102E80003E4A3F4B02F0ACF901D83E480890089802
:102E900002F0C6FA0546394A3B4B02F067F801D802
:102EA0003A480890089802F0BBFA0746334A384B74
:102EB00001F0F0FE054601F007FE0090FFF758FE16
:102EC000019002F0ADFA0022324BCDE9020102F08E
:102ED00089F80022304BCDE9040102F083F82F4A33
:102EE0002F4BCDE9060101F0D5FE824601F0ECFD45
:102EF000204988621F4A6168906A02F053FE0546C5
:102F0000284902F02DFB81464946099802F0B4FA9F
:102F1000059002F085FA07460022234B01F0BAFE25
:102F2000CDE906011448006802F07AFA0546DDE9A9
:102F3000062301F0FBFD824601F0C6FD0E49086044
:102F40001A48007878B11A48B0F90000B0F57A7FD5
:102F500009DA0848806A086015480088401C00B2F9
:102F60001349088002E00020104908700BB0BDE84A
:102F7000F08F000044020020940000209A99999953
:102F800099992340CDCC1C41999923C0CDCC1CC12B
:102F90009999334000000840008066406E861BF01F
:102FA000F92109400000404000407F403D000020E2
:102FB0009800002070B505460E4614463146284656
:102FC00002F02CFC01D2304670BD2146284602F0AA
:102FD00025FD01D22046F7E72846F5E703468B4258
:102FE00001DA08467047934201DD1046FAE71846B9
:102FF000F8E710B504464FF47A7104FB01F000F0D5
:1030000001F810BD70B5044601F032F9054600BF65
:1030100001F02EF929198842FAD370BD1FB501219C
:103020001C20FEF795F801210846FEF791F80420D0
:10303000ADF80C0003208DF80E0028208DF80F004D
:1030400003A93A48FDF7AAFE0120ADF80C000320C1
:103050008DF80E0028208DF80F0003A93448FDF7E5
:103060009DFE4FF48040ADF80C0003208DF80E005B
:1030700028208DF80F0003A92E48FDF78FFE4FF48E
:103080000050ADF80C0003208DF80E0028208DF8BC
:103090000F0003A92748FDF781FE2020ADF80C00A2
:1030A00003208DF80E0010208DF80F0003A91F4893
:1030B000FDF774FE20211D48FDF704FF02210120C9
:1030C000FDF74CFE00210846FDF748FE0520019063
:1030D00000208DF8080008208DF8090001208DF8E7
:1030E0000A0001A8FDF750FD4FF4E060FDF7E2FF94
:1030F00008208DF8000000208DF801008DF80200F6
:1031000001208DF803006846FDF79CFF06208DF82E
:10311000000000208DF801008DF8020001208DF8DC
:1031200003006846FDF78EFF1FBD0000000C014044
:1031300000080140001001402DE9F041044601F073
:1031400097F805460C4800682E1A0B4805600CB924
:10315000BDE8F08101F08CF80746084BA3F10C02A2
:10316000A2F10C01FFF778FE304602F043FB044960
:10317000886000BFECE70000140000205C02002023
:103180007802002010B50446FDF7C8FD2046FDF783
:1031900045FD10BDF8B54FF0FF350B4E00240CE097
:1031A000306800900098401C28B16946204600F025
:1031B000EDFD284345B2361F641C00F0B9FDA04266
:1031C000EED82846F8BD0000F0FF0108F8B501254B
:1031D0000F4E1048FFF7D6FF002410E06946204646
:1031E00000F0ACFD50B930460099FDF761FD0428B0
:1031F00001D1012000E000200540361F641C00F0D2
:1032000097FDA042EAD8FDF749FD2846F8BD000029
:10321000F0FF010800FC01082DE9F14F84B054488B
:10322000C06DB0F57A7F04DB5148006DB0F57A7F50
:1032300007DA00204F4908608861C86105B0BDE821
:10324000F08F4B49C86D02F0BDFA4B49019002F076
:10325000A9FC834602F0E4F805460022474B01F042
:1032600019FD81F000410022454BCDE9020101F03A
:10327000B9FE074601F028FC82463D49096DA1F2DE
:10328000DC5002F09FFA834602F0CAF800223D4B60
:10329000CDE9020101F0FEFC074600223A4B01F0A5
:1032A000A1FE054601F010FC04463148006DB0F562
:1032B000E16F04DC2E48006DB0F5966F06DA2D48FC
:1032C000846184F000402B49C86103E00020294953
:1032D0008861C8612648D0F85490B9F5966F03DA32
:1032E0002448C0F800A00AE0B9F5E16F04DD8AF0D7
:1032F00000402049086002E000201E490860049850
:1033000002F078FA05461B48026820482049036805
:10331000284600F057FE17490860049802F06AFA40
:103320000546144882691B4819490368284600F07D
:1033300049FE10498861049802F05CFA05460D4880
:10334000C269154812490368284600F03BFE094946
:10335000C861084600680D490860064880690D4943
:1033600008600448C0690C49086000BF66E70000B7
:1033700084020020B804002000007A4400408F40FE
:1033800000E0754000407F40000034402C000020E9
:103390000000A04130000020340000202DE9FE4F45
:1033A00000F066FF834626490968ABEB010002F096
:1033B00021FA02902248C0F800B02249086902F0C0
:1033C0002FF806460022204B01F00CFE04460D4665
:1033D0001E4801681E48006802F04EF880F0004761
:1033E0004FF08041384602F0BBF8064602F018F86C
:1033F00022462B46CDE9000101F098FB804601F002
:1034000063FB824600201249086010490860114899
:10341000C0F800A000F02CFF054602F0EBF90446CE
:103420000D4852460D490368204600F0CBFD09497E
:1034300008600846006808490860BDE8FE8F000083
:10344000740000204402002000003240DC00002014
:10345000D80000206C0000207800002000002041EF
:1034600010B501F0A9F900F08DFF10BD00B54FF4C3
:1034700080600C49086000F017F84FF400600949BB
:10348000086000F011F84FF480600649091F0860D9
:1034900000F00AF84FF480600249086000F004F878
:1034A00000BD0000140C014000BF00BF00BF00BF02
:1034B00000BF00BF00BF00BF00BF00BF00BF00BF14
:1034C00000BF00BF00BF0648007838B90F2000BF1A
:1034D000011EA0F10102D0B2FAD100BF7047000076
:1034E0004400002008B501210820FDF731FE4FF40B
:1034F0004060ADF8000003208DF8020014208DF824
:10350000030069460148FDF749FC08BD000C014075
:1035100000B54FF480600C490860FFF7C5FF4FF419
:1035200000600949091F0860FFF7BEFF4FF4806083
:103530000549091F0860FFF7B7FF4FF48060024993
:103540000860FFF7B1FF00BD140C0140F0B506465E
:103550000F4614461D4600F091F87106080E00F063
:103560005FF800F0D9F818B100F0B8F80120F0BD0C
:10357000384600F055F800F0CFF800F07FF8012150
:1035800001EB4601C8B200F04BF800F0C5F80DE0C1
:10359000012C04D1002000F00FF8287003E0012076
:1035A00000F00AF828706D1C601EC4B2002CEFD128
:1035B00000F094F80020DAE730B50446082500232F
:1035C00028021649086016E05806030E4FF4806082
:1035D0001249091D0860FFF767FF4FF480600F492B
:1035E0000860FFF761FF0D480838006800F40060CC
:1035F00008B143F00103281EA5F10101CDB2E3D1CA
:103600004FF480600549091D086014B1FFF72EFFD3
:1036100001E0FFF77DFF184630BD0000100C0140AF
:1036200010B5034608241DE04FF48060124908607D
:10363000FFF73AFF03F0800028B14FF400600E4915
:10364000091F086003E04FF400600B49086058064A
:10365000030EFFF729FF4FF480600749091F086038
:10366000FFF722FF201EA4F10101CCB2DCD14FF400
:1036700080600149086010BD140C014000B54FF492
:1036800000601549086040100860FFF70DFF124800
:103690000838006808B9012000E0002000F400604C
:1036A00008B1002000BD4FF400600B49091D0860FF
:1036B000FFF7FAFE08480838006800F4006008B117
:1036C0000020EFE74FF400600349091D0860FFF791
:1036D000EBFE0120E6E70000100C014000B54FF4BE
:1036E00080600C490860FFF7DFFE4FF40060094975
:1036F0000860FFF7D9FE4FF480600649091F086093
:10370000FFF7D2FE4FF400600249091F0860FFF77F
:10371000CBFE00BD140C014000B500234FF48060C7
:1037200014490860FFF7C0FE4FF400601149091FFB
:103730000860FFF7B9FE4FF480600E49091F08606A
:10374000FFF7B2FE07E0581CC3B2322B03DDFFF7D0
:10375000C5FF012000BD07480C38006800F4006078
:103760000028F0D14FF4806002490860FFF79CFE0A
:103770000020EFE7140C014070B504460D461646D4
:10378000FFF77CFF6106080EFFF74AFFFFF7C4FF53
:1037900018B1FFF7A3FF012070BD2846FFF740FFD7
:1037A000FFF7BAFF3046FFF73BFFFFF7B5FFFFF724
:1037B00095FF0020F0E7000010B500F0D7FF0024CF
:1037C0000648046806E02068642802DB6168A06996
:1037D0008847E469002CF6D110BD000024020020C7
:1037E00000F074FD00F002FBFFF73AFE03E000F08A
:1037F000BDFFFFF7E1FFFAE72DE9F041054600F0D4
:1038000037FD064666480068371A65480660654811
:10381000006801F09BFF04B2384601F0EBFF8046E0
:103820006148C268614862490368404600F0CAFBCB
:103830005D49C8600846C0685C4908605A4AD1685A
:10384000106802F0AFF980465A488169404601F09D
:1038500013FE59490860544AD168106802F0A2F971
:1038600080465448C169404601F006FE534908604D
:10387000384601F0BFFF8046514803684E48514921
:103880000268404600F09EFB4B490860384601F054
:10389000B1FF80464C48036848484A4902684046A0
:1038A00000F090FB454908604348006844490860BF
:1038B00042480068444908603F48006801F046FFFC
:1038C000424908603D48006801F040FF40490860F7
:1038D0003E480068002805DB3C48006820443B491E
:1038E000086004E039480068001B3849086038481F
:1038F0000068002805DB3648006820443449086029
:1039000004E033480068001B31490860C722514277
:103910002E480068FFF762FB2C490860C72251421D
:103920002B480068FFF75AFB2949086015B1294860
:10393000007808B1BDE8F08124480068002807DB62
:1039400000202549088021480088091D08800BE0D7
:103950001E480068002807DA1C48008840421E49BB
:1039600008800020091D088019480068002808DB2D
:10397000174800881849083108800020091D088070
:103980000CE013480068002808DA002012490831CA
:1039900008800F4800884042091D088000BFC9E721
:1039A0001C00002068000020A40400202800002043
:1039B000CDCC4C3FB80400200400002008000020BB
:1039C000200000200000A041240000200C00002066
:1039D000100000203D000020340800402DE9F84F81
:1039E00004460D4600F044FC064673480068371A4A
:1039F0007148066000F024F9384601F0FBFE83466A
:103A00006E4900F0A5FA81466D49B1F900104842AF
:103A100001F0D8FE6B49009001F034FF83466A48FC
:103A20000168584602F0BEF88246494601F02AFF76
:103A3000804665480168404601F01EFD206038461A
:103A400001F0D8FE83465D4900F082FA81465C4968
:103A5000B1F9020001F0B6FE5A49009001F012FFE0
:103A6000834659484168584602F09CF882464946C8
:103A700001F008FF804654484168404601F0FCFCD4
:103A80006060384601F0B6FE83464C4900F060FAAB
:103A900081464B49B1F90410484201F093FE49496F
:103AA000009001F0EFFE834647488168584602F0D7
:103AB00079F88246494601F0E5FE80464248816831
:103AC000404601F0D9FCA060384601F093FE8346E1
:103AD0003E4900F03DFA81463949B1F906104842A5
:103AE00001F070FE3A49009001F0CCFE834639485F
:103AF0000168584602F056F88246494601F0C2FE77
:103B0000804634480168404601F0B6FC28603846DB
:103B100001F070FE83462D4900F01AFA81462849CB
:103B2000B1F9080001F04EFE2949009001F0AAFE0B
:103B3000834628484168584602F034F88246494690
:103B400001F0A0FE804623484168404601F094FC05
:103B50006860384601F04EFE83461C4900F0F8F9D3
:103B600081461749B1F90A10484201F02BFE184965
:103B7000009001F087FE834616488168584602F09F
:103B800011F88246494601F07DFE80461148816861
:103B9000404601F071FCA8600B492068086060682D
:103BA0004860A06888600B492868086068684860B9
:103BB000A8688860BDE8F88FC40000200000484372
:103BC000100A00200AE81C3B480A00200000964327
:103BD00058A08B3A540A002010B501240020FDF7AC
:103BE0001AFA0A20FFF705FA0320FDF7CAF90A209E
:103BF000FFF7FFF94FF47A70FDF716FA0A20FFF786
:103C0000F8F90320FDF7E3F90A20FFF7F2F90220A3
:103C1000FDF7CBF90A20FFF7ECF92046FDF7BBF9D9
:103C20000A20FFF7E6F90020FDF7ECF90A20FFF77C
:103C3000E0F90120FDF7DDF90A20FFF7DAF910BD00
:103C40002DE9F0473749C86801F080FD04B23549D5
:103C5000086901F07BFD05B23249486901F076FD43
:103C600006B23049886901F071FD07B22D49C86973
:103C700001F06CFD0FFA80F82A49086A01F066FD30
:103C80000FFA80F9012028490870284B0E223B21A9
:103C90006820FFF75BFC254840782449097840EA12
:103CA0000120204400B21F4908802048C0781F49E5
:103CB000897840EA0120284400B21A4948801B480C
:103CC00040791A49097940EA0120304400B2154987
:103CD00088801648C0791549897940EA012000B2E8
:103CE000104988841148407A1049097A40EA012035
:103CF000384400B20B49C8800C48C07A0B49897A15
:103D000040EA0120404401B2064801810748407B57
:103D10000649097B40EA0120484401B2014841813B
:103D2000BDE8F087100A002044000020380A002077
:103D300001480068704700001C0200200246084845
:103D40000068824208D202EB4200064B03EB80007F
:103D500080680860002070474FF0FF30FBE70000EC
:103D60001C020020F0000020014606480068814245
:103D700005D201EB4100044A52F8200070470020B0
:103D8000FCE700001C020020F000002002460A4868
:103D9000006882420DD202EB4200084B03EB800028
:103DA0000B68836006480068401C054B18600020C3
:103DB00070474FF0FF30FBE71C020020F0000020AE
:103DC00020020020014607480068814206D201EB2C
:103DD0004100054A02EB8000808870474FF6FF7073
:103DE000FBE700001C020020F00000200020194921
:103DF0000860194848601949164881600020154933
:103E00000861174817490860174888600020486013
:103E100016481749C860174915480161164941619C
:103E20001448134988614FF041411148C161134959
:103E300001621348134908630120134908701348AD
:103E4000134908601348144908601448144908606D
:103E500070470000B80400206666A63F6F12033B5F
:103E600000007841D80400200000D0410000D7C3F2
:103E7000100A002000002041000016430000E0402E
:103E80000000A342440200203D00002000007041D9
:103E9000680000209A99193FA80000209A99993E3D
:103EA000AC00002000B589B001210420FDF730F9F5
:103EB00001210820FDF74CF94FF47070ADF8200097
:103EC00018208DF8230003208DF8220008A91E4831
:103ED000FCF764FFC720ADF818002320ADF81400EC
:103EE0000020ADF81A00ADF8160005A91748FDF737
:103EF000D7FC6020ADF804000120ADF806000020DA
:103F0000ADF80C00ADF80A0001A91048FDF79CFBC4
:103F10000020ADF80A0001A90C48FDF7E1FB0020E4
:103F2000ADF80A0001A90948FDF72CFC0020ADF806
:103F30000A0001A90548FDF775FC01210348FDF7BA
:103F400069FA09B000BD0000000C01400008004003
:103F50002DE9F35F8A461749009801F001FB0090B4
:103F60000021504601F05AFC04D90021009801F0CC
:103F700055FC02D81048BDE8FC9F504601F050FAAD
:103F8000064600220D4B01F02DF8044622460B4652
:103F900000200B4900F07EFE804600F095FD834630
:103FA0005946009801F068FA04462146009801F04D
:103FB000D7FAE0E7002474496F12833AFA211940D6
:103FC0000000F03F2DE9FF4F83B0894692461C4622
:103FD0001E49039801F0C4FA03900021484601F0FD
:103FE0001DFC04D90021039801F018FC03D82046D9
:103FF00007B0BDE8F08F484601F012FA0022144BDA
:10400000CDE9000100F0EEFF07463A460B460020DE
:10401000104900F03FFE054600F056FD8346594624
:10402000039801F029FA80464146039801F098FA76
:1040300006462146504601F0B5FD0746314601F0DF
:1040400021FC0546214601F017FAD1E70024744906
:10405000FA2119400000F03F2DE9F04104460D46D9
:1040600016464FF0FF37032C05D1F1B2284600F079
:1040700093FB074603E0092C01D1FFF78BF8384684
:10408000BDE8F08108B501210420FDF761F84FF487
:104090001840ADF8000003208DF8020010208DF8C4
:1040A000030069460148FCF779FE08BD000801409D
:1040B00070B505460C461A4909681A4A1268891AE9
:1040C00001F1FF00C11700EB11610912A0EB012102
:1040D000A14222DD002240F225511348FDF7A8FC41
:1040E000002010E011490F4A1268895C29540D4ADA
:1040F0001268511CCA1701EB12621212A1EB0222C4
:10410000084B1A60401CA042ECDB012240F2255112
:104110000548FDF78DFC002070BD4FF0FF30FBE738
:10412000600000205C00002000380140A403002053
:1041300070B54FF0FF350C48FDF70CFD0B490C4AEC
:10414000126888540A490968481CC11700EB1161BC
:104150000912A0EB012407480068844200D0002522
:1041600003480460284670BD00380140A4030020C5
:10417000600000205C0000202DE9F0478046894661
:10418000164610480568002701E02F46ED6915B175
:104190002868B042F9DB2020FEF7B6FC04466CB17B
:1041A000E5612660C4F80480C4F818900FB1FC6182
:1041B00001E0044804600020BDE8F0874FF0FF30C4
:1041C000FAE700002402002070B5044600F050F821
:1041D0000546094800682E1A0748056004B970BDF5
:1041E0000649A1F10C00FFF7F9FB304601F002FB94
:1041F0000349486000BFF2E7180000205002002089
:104200007802002070B50E4D2C46B4F1807F00D3AB
:1042100011E024F07F40401E4FF0E02148610F2163
:104220004FF0FF30FCF750FF00204FF0E021886195
:104230000720086100BF0221C81EFCF745FF70BDC2
:1042400000DD6D0070B5054601F024FC044620F049
:104250000040C0F1FF40C00F08D025F00040C0F181
:10426000FF40C00F04BF0120FCF70EF9204670BDCF
:104270002DE9F0474FF0E021486901F0BBFA814693
:104280004FF0E021886901F0B5FA8246494601F015
:1042900067F907460B48006801F0ACFA81464FF019
:1042A0007E5101F0E9F88046394601F07BFC064674
:1042B000054901F0E7FA054601F064FA0446204694
:1042C000BDE8F087400000200050C34710B54FF410
:1042D000E060FCF7EFFEFFF795FFFFF7D3FEFFF777
:1042E00001F9FFF779FC6420FEF783FEFFF774FC09
:1042F0006420FEF77EFEFFF7D5FD4FF4FA6000F074
:1043000051F8FEF78BFE10BD10B50120FFF75CFFE2
:104310000120FEF711FF0120FEF77CFD0120FEF7D2
:1043200089FDFFF73BF8FFF7A3FF0446114A124847
:104330000168204600F020FB10480068142804D9CA
:1043400001200E49086000F0B9FA0C48006801F03D
:1043500051FA04460A4842688168204600F080FB12
:1043600006480068401C054908600120FFF744FA30
:1043700010BD0000440200206C000020000000205E
:10438000A40400201CB5064903C9CDE9000102249C
:10439000FDF71CFC69462046FDF7E6FB1CBD00004E
:1043A000705E00081FB5044601210846FCF7B0FE08
:1043B0004FF08040FDF73AF8ADF804404720ADF8E3
:1043C00000000020ADF80600ADF8020069464FF08D
:1043D0008040FDF765FA01218807FDF715F80122F5
:1043E00011469007FDF727F901218807FDF712F81C
:1043F0004FF4E060FCF75EFE1C208DF80C000220FC
:104400008DF80D0003208DF80E0001208DF80F00AF
:1044100003A8FCF717FE1FBD10B5FFF729FF10BD5D
:1044200010B54FF0FF340D4800680D490968884207
:1044300011D00C48094A1268815C0B48FDF78FFBCC
:1044400006480068401CC02190FBF1F201FB1200FD
:10445000024908600024204610BD000054000020DE
:1044600058000020E40200200038014070B50546E5
:104470000C464FF0FF361848006818490968401A82
:10448000BF30C02190FBF1F201FB1200A0421ADD07
:10449000002240F227711248FDF7CAFA00200FE00F
:1044A000295C104A0D4B1B68D1540C490968491C02
:1044B000C02291FBF2F302FB1311084A1160401C69
:1044C000A042EDDB0026012240F227710448FDF7EF
:1044D000AFFA304670BD00005400002058000020A4
:1044E00000380140E40200209F49087091F839101B
:1044F00013296FD2DFE801F00A1B2C404C58636F80
:104500007A85909BA6B1BCC7D2E3F500964909789D
:10451000A52907D1944991F83910491C924A82F88B
:1045200039101EE10021904A82F8391019E18E49B4
:1045300009785A2907D18C4991F83910491C8A4ABF
:1045400082F839100DE10021874A82F8391008E11C
:104550008549097811290AD183490978824A51632A
:10456000114691F83910491C82F83910F9E0002100
:104570007D4A82F83910F4E07B4909787A4A82F85A
:104580003810114691F83910491C82F83910E8E0CA
:1045900075490978744A82F83A10114691F8391031
:1045A000491C82F83910DCE06F490A7881F83B2019
:1045B00091F83910491C6C4A82F83910D1E06A49E7
:1045C0000A7881F83C2091F83910491C664A82F833
:1045D0003910C6E0C0E064490A7881F83D2091F8BE
:1045E0003910491C604A82F83910BAE05E490A78ED
:1045F00081F83E2091F83910491C5B4A82F8391045
:10460000AFE059490A7881F83F2091F83910491CE8
:10461000554A82F83910A4E053490A7881F84020BD
:1046200091F83910491C504A82F8391099E04E49E6
:104630000A7881F8412091F83910491C4A4A82F8D9
:1046400039108EE048490A7881F8422091F83910F3
:10465000491C454A82F8391083E043490A7881F8B9
:10466000432091F83910491C3F4A82F8391078E00C
:104670003D490A7881F8442091F83910491C3A4A9A
:1046800082F839106DE038490A7881F8452091F8B0
:104690003910491C344A82F8391062E032490978ED
:1046A000122907D1304991F83910491C2E4A82F855
:1046B000391056E000212C4A82F8391051E02A497D
:1046C0000978342908D1284991F83910491C264A1B
:1046D00082F8391045E004E00021234A82F83910BD
:1046E0003FE0214991F83B101F4A92F83A2001EB34
:1046F00002211D4A9164114691F83D2091F83C1029
:1047000002EB0121184AD164114691F83F2091F83B
:104710003E1002EB0121144A1165114691F8412027
:1047200091F8401002EB01210F4A5165114691F8B2
:10473000432091F8421002EB01210B4A916511468A
:1047400091F8452091F8441002EB0121064AD16509
:10475000002182F8391004E00021034A82F8391060
:1047600000BF00BF704700008402002010B54FF466
:104770000030FCF7F9F801280BD14004FCF734F8BD
:10478000002404E00349085DFFF7AEFE641C312CF1
:10479000F8DB10BD8502002070B504460D462946A1
:1047A0002046FFF785FC70BD70B504460D462946CE
:1047B0002046FFF75BFE70BD00B593B00121880372
:1047C000FCF7C6FC01210420FCF7C2FC4FF400708A
:1047D000ADF8040003208DF8060018208DF80700BE
:1047E00001A93248FCF7DAFA4FF48060ADF8040012
:1047F00003208DF8060004208DF8070001A92B483E
:10480000FCF7CCFA4FF4E13004900020ADF814002E
:10481000ADF81600ADF81800ADF81C000C20ADF88E
:104820001A000020ADF80800ADF80A004FF400703F
:10483000ADF80C000020ADF80E0004A91C48FDF7EF
:104840001DF902A91A48FDF7A3F8012240211848D2
:10485000FDF7BBF801210846FCF74AFC1548FBF7B9
:10486000DDFF1348001D08901348099000200A90AE
:1048700032200B9000200C9080200D9000200E9094
:104880000F9020201090000211900020129008A993
:104890000848FCF77FF801210648FBF7B3FF012128
:1048A0000348FDF786F813B000BD00000008014082
:1048B00000380140580002408502002070B50446CF
:1048C00004B970BDFFF7D4FC05460548054A0369E5
:1048D00005480168284600F009F800BFF1E700002C
:1048E000B8040020440200206C0000202DE9F05F95
:1048F00004460E4693461D4619490968601A00F0A1
:1049000079FF81461648046016490868314601F06F
:1049100049F91449486148691349096801F042F9A5
:10492000824610484069104908600E4A5168506933
:1049300000F0A8FF80462F460C4840680B4988606D
:104940003946404600F098FD08494860084A4868E2
:104950000849FEF72FFB05494860BDE8F09F0000BD
:1049600080000020B804002088000020A40400205B
:104970000000C8430000C8C32DE9F74F8AB0824643
:104980002F490968AAEB010000F034FF09900020CC
:1049900008902B48C0F800A02A4908680B9901F03C
:1049A00001F9834600240DE02749601C51F82000DE
:1049B00041F82400084650F82410089800F05CFDE7
:1049C0000890641C132CEFDB1F48C0F84CB0C16C7E
:1049D000089800F051FD0890099800F021FDCDE9FC
:1049E00006011849886800F01BFDCDE9040108980C
:1049F00000F016FD154A164BCDE9000100F0F2FA61
:104A0000CDE90201DDE9042300F0ECFA8046DDE99E
:104A1000062300F0E7FA064600220E4B00F03AF9B2
:104A2000044600F051F8074908610B4A08690B4930
:104A3000FEF7C0FA034908610DB0BDE8F08F000031
:104A40007C000020B804002034050020F168E388D1
:104A5000B5F8E43E00408F4000007042000070C294
:104A60002DE9F04704460E4615463146284601F02A
:104A700099F88146214600F005FF8046054900F07F
:104A80006FFD0746314600F0F7FC0349C860BDE8FA
:104A9000F08700000000A041A40400202DE9F041AF
:104AA00004460D4616464FF0FF37032C05D1F1B2F0
:104AB0002846FFF779FE074603E0092C01D1FEF7EF
:104AC00085FB3846BDE8F08121F00042A2F160523A
:104AD000B2F5801F01F0004328BFD2F17F6C0BD9E3
:104AE0005FEA001C43EAC20242EB507018BF7047F5
:104AF00028BF20F001007047B2F5801FBCBF1846E8
:104B000070474FEA410C1CF5001F02D2084600F026
:104B100080BF70B500F010FB00000089FFF7F6BF02
:104B20004FF00040A0F580007047000010B591EAFA
:104B3000030F48BF83F0004300F19083841A71EBA8
:104B4000030C05D2121943EB0C03001B61EB0C01A3
:104B5000DFF824E14FEA1154A4EB135C1EEA430F83
:104B600018BF9EEA445F73D023EA0E03DCF1200EE7
:104B700021EA045143F4801332D322FA0CFE10EBE5
:104B80000E0023FA0CFE41EB0E01CCF1200E03FACD
:104B90000EFE10EB0E0051F10001B1F5801FCCF1BB
:104BA000200E32D201EB045112FA0EF2BDE8104091
:104BB00058BF7047401C38BF5FEA420218BF7047B9
:104BC000002814BF20F0010041F100014FEA410329
:104BD00013F5001F38BF7047A1F1C04100F0FABAC9
:104BE000012A43EB0302ACF1200CDCF11F0E32BFB3
:104BF0004FF0000E23FA0CF310EB030041EB0451CD
:104C0000B4EB115FD0D0A1EB045101F5801149083C
:104C10005FEA300001EB04510ED350F1000038BFC1
:104C200012FA0EFE08D1BDE81040C9E7401C38BF9B
:104C30005FEA4202CAD1C3E7BDE810404FEA410330
:104C400013F5001F38BF7047A1F1C04100F0C2BA90
:104C50009EEA445F08D011EA5E0FBDE8104004BF31
:104C600001F0004100207047BDE8104070B500F031
:104C700063FA00BF64FBBE3E0000E0FF491058BF6E
:104C8000C1F140415B1058BFC3F140438B42EFF389
:104C9000008070472DE9C04130B4DFF8A0C23CEA83
:104CA000111418BF3CEA131400F0EC8081EA0305EC
:104CB0001CEA111444EAD57418BF1CEA131500F05D
:104CC000C780A4EB05044FF0004545EAC12145EA41
:104CD000C32341EA505143EA525304F17F7499428D
:104CE00004F500344FEAC0204FEAC22208BF9042C8
:104CF00000F09C804FEA13650FF24016765D4FEA94
:104D0000134506FB05F7C7F1807706FB07F74FEA67
:104D1000D737A7FB03687642C8F58038A7FB06CED5
:104D200038BFA8F1010807FB08E64FF0000EA6FB0C
:104D3000028CE6FB03CEDCF1000CCEF1004E38BF56
:104D4000AEF1010EA6FB0C584FF000074FF0000526
:104D5000E6FB0E87A1FB08C6A0FB07CE16EB0E06EE
:104D600045F10005E1FB076515F1E04E7EBFA4F5B6
:104D700080345FEA46066D4116F1800745F1000573
:104D80004FEA17274FEA066647EA0567A6F1DE46AF
:104D9000B6F1805F4FEA15251FD9384624F0010C83
:104DA00005EBC471BCF1FE6F01EB0C1102D8F0BC35
:104DB000BDE8008124425CBF01F5801E9EEAC47FED
:104DC00002D4F0BCBDE80081244238D4F0BCA1F18B
:104DD000C041BDE8004100F0FDB94FEAD22242EAED
:104DE00043524FEAD323A7FB02864FEAD02040EA82
:104DF000415007FB03661EEA0E0F4FEAD12105FB67
:104E0000026658BFA6EB0056B6EB00564FEA520EAC
:104E10004EEAC37E18EB0E0E56EB530EBDD518EBC3
:104E200002085E417F1C55F10005B6E74FF480157E
:104E30004FF000074FF000064FF00008ADE7F0BC60
:104E40004FF0000001F1C04101F00041BDE80081D8
:104E500011EA0C1F0CEA131500D00CE013EA0C1F2A
:104E600000F025804FF00000F0BC81EA030101F062
:104E70000041BDE80081F0BCBDE8004181EA0301CA
:104E800000F0A8B9F0BCBDE8004170B500F054F9DD
:104E9000097EFC3E00F007B881EA03014FF00000F4
:104EA00001F00041704781EA030100F093B9F0BCC2
:104EB000BDE800414FF0000021497047FFFDFBF9BC
:104EC000F7F5F4F2F0EEEDEBE9E8E6E4E3E1E0DE3D
:104ED000DDDBDAD8D7D5D4D3D1D0CFCDCCCBCAC8AF
:104EE000C7C6C5C4C2C1C0BFBEBDBCBBBAB9B8B7D6
:104EF000B6B5B4B3B2B1B0AFAEADACABAAA9A8A8C9
:104F0000A7A6A5A4A3A3A2A1A09F9F9E9D9C9C9B96
:104F10009A99999897979695959493939291919041
:104F20008F8F8E8E8D8C8C8B8B8A898988888787D2
:104F30008685858484838382828181800000FF0747
:104F40000000F87FB0FA80F310FA03F10AD0C3F141
:104F50001D0303F580634FEA41504FEA035202EB11
:104F6000D12170474FF000007047000051EA030C58
:104F700017D41CF5801F58BFBCF5801F00F10680B8
:104F8000994218BF704708BF9042704707D711F584
:104F9000801F58BF13F5801F19D49942704789426A
:104FA00070471CF5801F08D5BCF5801FF7D58B42D4
:104FB00018BF704708BF824270474FF4001C1CEBBB
:104FC000410F38BF1CEB430F01D28B42704770B5C5
:104FD00000F0B2F8922449004FF000514FF0805396
:104FE000FFF74CBEDFF848C170B51CEA111E1EBFAA
:104FF0001CEA13159EEA0C0F95EA0C0F00F06F8067
:1050000081EA030423EA4C134EEAD47E21EA4C11D0
:1050100041F4801143F48013AE44A1FB024CA0FB89
:105020000365AEF17F7E361955EB0C05A1FB034CF1
:105030004CF10003A0FB021C16EB0C06654153F17A
:105040000003094218BF46F0010613F4007F0BD19C
:105050004FEA03314FEA0530340341EA155140EA83
:1050600016506FF003020AE04FEAC3214FEAC52051
:10507000F40241EA555140EA56506FF0020202EB49
:105080002E4201EB025585EACE710AD05FEA440C4C
:1050900018BF24F0004450F1000041F1000120EA63
:1050A000D47040F2FE7C624500D270BDA84214BFAD
:1050B0004FF080444FF04044002E08BF0024BEF162
:1050C000806FA8BFA1F1C041BDE8704080F282802E
:1050D0004FF0000001F1C04101F0004170479EEA2D
:1050E0000C0F0CEA131518BF95EA0C0F06D04FF001
:1050F000000081EA030E0EF0004170BD00F01CF8C4
:105100008900013E00F007B800F009B84FEA430CEF
:105110005FEA5C5C08D081EA030100F05BB84FEA0B
:10512000410C5FEA5C5CF6D14FF00000014970472A
:105130000000FF070000F87F0EF1020E2EF0030EB4
:105140005EF8046B364205D4012A43EB030515F5DE
:10515000001F12D8012841EB010C1CF5001F0CD8D0
:105160000ED14FEAD17C15F5001F0CEB4C0C0CF165
:10517000020C08BF4CEBD37C04E04FF0080C01E0BC
:105180004FEAD37C0CEB4C0526FA05F606F0070631
:10519000B6F1040C06D20EEB860CBDE870404CF064
:1051A000010C6047DFE80CF0090B02024FF00041F0
:1051B0004FF00000A1F5002170BD194610460128EE
:1051C00051EB010418BFD4F5001484BF002001F096
:1051D000004170BD0808A0F500114FEA3101704789
:1051E00053EA010C17D41CF5801F58BFBCF5801F73
:1051F00000F106808B4218BF704708BF824270479B
:1052000007D713F5801F58BF11F5801F19D48B42A3
:1052100070479B4270471CF5801F08D5BCF5801F66
:10522000F7D5994218BF704708BF904270474FF4B6
:10523000001C1CEB430F38BF1CEB410F01D29942FD
:1052400070470FB40CBC03BCFFF7C1BE10B591EAA8
:10525000030F48BF83F000433FF570AC841A71EB35
:10526000030C07D212198CF0004C43EB0C03001B0B
:1052700061EB0C01DFF8A4E14FEA1154A4EB135CDD
:105280001EEA430F18BF9EEA445F00F0B08023EA95
:105290006E03524221EA0451C3EB6E0338BF5B1E1A
:1052A000DCF1200E25D322FA0CFE10EB0E0043FA9F
:1052B0000CFE41EB0E01CCF1200E03FA0EFE10EBBA
:1052C0000E0051F10001CCF1200E29D412FA0EF299
:1052D00001EB0451BDE8104058BF7047401C1CBF93
:1052E000B2F1004F704700280CBF491C20F00100AC
:1052F000704712EB020E43EB030218BF4FF0010E92
:105300004EEA4202ACF1200CDCF11E0E54D943FAF5
:105310000CFE10EB0E0051F1FF31CCF11E0ED5D575
:105320000EF1010E12FA0EFE404141EB010101EBBC
:10533000445C5FEA5C5C10D910EBDE7001EB045159
:1053400038BFBEF1004FBDE8104018BF70470028BD
:105350000CBF491C20F00100704730D24FEAD42C1A
:1053600011F5001124F400641BD0B1FA81F20B3A5C
:10537000A41AA41ED2F12003914030FA03F319437A
:10538000904001EBCC71002C01EB0451BDE81040C2
:10539000A8BF704701F1C0414FF0000001F000418B
:1053A0007047B0FA80F310FA03F100D110BDE41A8F
:1053B000173C4805C90AE4E701EB045110BD491048
:1053C00001EB0451BDE810404FEA300002E04FF01D
:1053D000000170474A0008BF0042F8D0B2F5001F34
:1053E00028BF704701F000414FF0000070479EEA6F
:1053F000445F07D011EA5E0FBDE8104004BF0021F2
:1054000000207047BDE8104070B5FFF795FE00BF63
:1054100040DFF63E83F00041104670470000E0FF99
:1054200043004FEAD30C4FEA3C0C43401FBF4007F8
:105430000CF1605113F0FE4F70471CF0006F03D168
:1054400000200CF0004170470CF0004343EA50701C
:1054500010B540EACC0000F096FA00BF00000092C0
:105460004FEA0001FFF7B6BE4FF000414FF00000D9
:10547000A1F500217047000090EA010F48BF81F0BC
:10548000004100F19683421A3CBF801A89184FEA06
:10549000D0524FF07F4C1CEA410FA2EBD15318BF02
:1054A0009CEA026F00F03B804FF0004C4CEA002079
:1054B0004CEA012121FA03FC10EB0C0C1ED202F184
:1054C000FF325FEA1C2040EBC25038BF70471CF02F
:1054D0007F0F4FEA400C18BFBCF17F4F38BF7047B9
:1054E000C3F12003994008BF20F00100BCF17F4FB9
:1054F00038BF7047A0F1C04000F08BBA4FEA3C00C3
:10550000000A40EBC25028BF1CF0FF0F4FEA400CCE
:10551000E6D018BFBCF17F4F38BF7047EAE79CEA7E
:10552000026F05D010EA5C0F08BF00F00040704722
:1055300010B500F028FA00BF64FBBE3E014800F041
:10554000A6BB00BF0000C07F401058BFC0F1404064
:10555000491058BFC1F140418142EFF300807047CC
:105560004FF47F0C1CEAD0121EBF1CEAD11392EA42
:105570000C0F93EA0C0F00F0858090EA010F48BFF2
:1055800042F4807240F4000C41F400002CF07F41A2
:1055900020F07F4000B58142A2EB03020FF2081C0D
:1055A000ACEB504EC0F100009EF800E04FEA4E0E0A
:1055B00000FB0EFC38BF49004FEA2C1C02F5FA0232
:1055C0000CFB0EF34FEACE1E4FEA112C4FEAC1211D
:1055D0000EEB635E42EB22420EFB0CFC4FEA1C53C7
:1055E00000FB03114FEA112C4FEA01310EFB0CFCBA
:1055F0004FEADC4C00FB0C11C14228BF09184CEBF0
:1056000003335DF804EB10EB410143EBC250B2F5FC
:105610007C0F38BF704729D512F0F00F1CBF00F186
:10562000C04000F0004070470081828384858687F7
:1056300088898B8C8D8E8F919293959697999A9C51
:105640009D9FA0A2A3A5A7A8AAACAEB0B2B3B5B7C0
:10565000B9BCBEC0C2C5C7C9CCCED1D4D7D9DCDF96
:10566000E2E6E9ECF0F3F7FAFE0000004FEA400C46
:105670000CF1807CBCF17E4F28BF7047B0F1C04078
:1056800000F0C7B990EA010F0CEAD11348BF42F409
:105690008072624538BF634507D213F47F0F16D07E
:1056A00080EA010000F00040704710B500F06BF98F
:1056B000097EFC3E00F005B880EA010000F00040E1
:1056C000704780EA010000F0004000F0A2B912F437
:1056D0007F0F04BF0248704780EA010000F099B9CB
:1056E0000000C07F50EA010C00F113801CF5000F90
:1056F00058BFBCF5000F01D48842704707D710F59A
:10570000000F58BF11F5000F15D488427047894229
:1057100070471CF5000F04D5BCF5000FF7D581428A
:1057200070474FF0807C1CEB400F38BF1CEB410FE3
:1057300001D28142704710B500F025F9922449004A
:105740004FF000504FF08051FFF7FEBE41000B0EAE
:10575000D3F19E0208D950F400034FEA032323FA41
:1057600002F048BF4042704710B500F00CF900BF8E
:1057700049922480002070476FF0004282EA2000A6
:1057800070470000C10DD1F19E0206DB4FEA0023F5
:1057900043F0004323FA02F07047004207D54FEA76
:1057A0004001B1F1FE4F02D24FF00000704710B53A
:1057B00000F0E9F849922480002070476FEA200049
:1057C0007047000010F0004148BF4042B0FA80F33B
:1057D00010FA03F2C3F19D030BD051EAC35101EB60
:1057E0001220530638BF704700F1010008BF20F0B7
:1057F00001007047B0FA80F310FA03F2C3F19D0381
:105800000AD0D90501EB1220530638BF704700F1CA
:10581000010008BF20F001007047000050EA010CB1
:1058200000F113801CF5000F58BFBCF5000F01D428
:105830008842704707D710F5000F58BF11F5000FC9
:1058400015D488427047894270471CF5000F04D573
:10585000BCF5000FF7D5814270474FF0807C1CEB00
:10586000400F38BF1CEB410F01D28142704710B589
:1058700000F089F8922449004FF000504FF0805119
:10588000FFF762BE4FF47F0C1CEAD0121EBF1CEA69
:10589000D11392EA0C0F93EA0C0F00F0478090EAC4
:1058A000010F48BF42F480724FF0004C4CEA0020D8
:1058B0004CEA012102EB0302A0FB0113A2F5000256
:1058C000002918BF43F001035B0028BF4FEA3303F0
:1058D00042EB22425FEA132C4CEBC2502EBFBCEBD2
:1058E000436FB2F57C0F70474FEA036CBCF1004F79
:1058F00008BF20F00100B2F57C0F38BF70470BD510
:1059000082F0FF0212F5803FC8BF704700F1C0402F
:10591000D8BF00F00040704700F5000C5FEA4C0C67
:1059200048BF7047B0F1C04000F073B890EA010F73
:105930000CEAD11348BF42F48072624538BF634518
:1059400004D280EA010000F00040704710B500F07A
:105950001AF800BF8900013E00F007B800F009B84E
:105960005FEA410C5FEA1C6C08D080EA010000F09D
:1059700050B85FEA400C5FEA1C6CF6D14FF0004073
:10598000A0F5800070470EF1020E2EF0030E5EF8B7
:10599000044B244204D44FEA4102B2F17F4F11D8A4
:1059A0004FEA4003B3F17F4F0CD80ED14FEAD07CC1
:1059B000B2F17F4F0CEB4C0C0CF1020C08BF4CEB1E
:1059C000D17C04E04FF0080C01E04FEAD17C0CEBF5
:1059D0004C0324FA03F404F00704B4F1040C06D2D7
:1059E0000EEB840CBDE810404CF0010C6047DFE882
:1059F0000CF0070802024FF00040A0F5800010BD37
:105A00000846420018BFD2F1807288BF00F0004003
:105A100010BDFF2141EAD050C005704751EA000C8B
:105A200000F113801CF5000F58BFBCF5000F01D426
:105A30008142704707D711F5000F58BF10F5000FCE
:105A400015D481427047894270471CF5000F04D578
:105A5000BCF5000FF7D5884270474FF0807C1CEBF7
:105A6000410F38BF1CEB400F01D28842704780EADB
:105A7000010081EA000180EA0100FFF7F8BE80F032
:105A8000004090EA010F7FF5FEAC81F0004100F08C
:105A900090B800004FEAD051002988BFD1F1FF0231
:105AA00040F2758001F17D014FEA002070B5490890
:105AB00040F0004038BF40080EA2430E040CD25CF8
:105AC00002FB02F304FB03F3C3F14043A3FB0254C4
:105AD000ED0D45EA442202FB02F3A0FB03546D42A4
